:020000040000FA
:040000008B01252922
:040004000034003490
:0800080009000034203400342B
:1000100000342034203400342034103400340034D0
:1000200010341034003420340034003400342034D0
:1000300000342034003420342034003410340034B0
:1000400010340034103410341034003400340034D0
:100050002034003420342034203400340034103470
:1000600000341034103400342034013404340134AA
:1000700004340234023402340234033402340334CC
:1000800002340334023403340234023403340234BD
:1000900003340234033402340334023403340234AC
:1000A00003340F3401340134013401340F3401348A
:1000B000013401340134033403340334033403348E
:1000C0000334033403340134013403340434073477
:1000D000033402340234073401340234023403346A
:1000E00007340034E0000830E200E00CE10DE20BE0
:1000F000752861080800E30000308A0063080F39A2
:10010000053E03188A0A8200E30000308A00630873
:100110000F39153E03188A0A8200E30000308A0076
:1001200063080F39253E03188A0A8200871750306A
:10013000E100E10B992887135030E100E10B9E2884
:1001400000000000000000000000000000000000AF
:100150000000000000000000203084002030E0009B
:100160000830E2000008E100840A0008E400840A84
:100170006408E11F0030E6000000000000000000FD
:10018000000000000000000000000000000000006F
:10019000000000007B20E7000830E800E71FD628B9
:1001A00087170000000000008713D82887178713DF
:1001B000E70DE80BCE280000000000000000000062
:1001C000000000000000000000000000000000002F
:1001D00000000000000066088420E7000830E80006
:1001E000E71FF82887170000000000008713FA288F
:1001F00087178713E70DE80BF028000000000000C8
:1002000000000000000000000000000000000000EE
:10021000000000000000000066088D20E7000830A4
:10022000E800E71F19298717000000000000871366
:100230001B2987178713E70DE80B1129E10DE20B46
:0A024000B828E00BB028871708006B
:06024A00831203179E0160
:100250009F018316031307138713F030860083165C
:1002600003138F01831603130F178F160F120F1D21
:100270003729831203138717FE012030E10083130F
:100280002030840000308000840A01308000840A1D
:10029000E10B42290717071396207E08203E8400B1
:1002A0000608FE1C72208000FE0A7E0A3F39FE000E
:0202B0004A29D9
:02400E00D238A6
:00000001FF
