:020000040000FA
:040000008B019529B2
:040004000034003490
:0800080009000034203410341B
:1000100008342034103420341034003400340034D8
:1000200000340034003408340834003420341034F0
:100030000834003400342034103420341034203498
:1000400010340034003400340034003420341034D0
:1000500008340034003400340034003400342034D8
:10006000103420342034203410340134043401346A
:1000700004340234023402340234033402340334CC
:1000800002340334023403340234023403340234BD
:1000900003340234033402340334023403340234AC
:1000A000033400340134053406340A340C340E347D
:1000B00010341234153417341A341C341F342134DC
:1000C0002434263428342B342D343034323435342F
:1000D00037343A343C343F3441340F340134013442
:1000E000013401340F340134013401340134033458
:1000F000033403340334033403340334033401344A
:100100000134033404340734033402340234073432
:10011000013402340234033407340034E300003085
:100120008A006308353E03188A0A8200E300003023
:100130008A006308513E03188A0A820000308A0050
:1001400062086D3E03188A0A82001F39E0001C3CD9
:10015000031860088E20FB00E10060089620E20092
:10016000773084009E208000840AE20AE10BB228E6
:1001700000340800F60308000800F60A08007608B4
:100180007C087B08E1007630610784000008E0000D
:100190007C086107840060080418E2208000E10BFD
:1001A000C3280800750874040319F5098030751B0D
:1001B000F506751AF506F419F506750DF40DF50D2D
:1001C00074080800E0000830E200E00CE10DE20BEA
:1001D000E52861080800E30000308A0063080F3951
:1001E000153E03188A0A8200E30000308A00630883
:1001F0000F39053E03188A0A8200E30000308A00A6
:1002000063080F39253E03188A0A82008717503089
:10021000E100E10B092987135030E100E10B0E29C1
:1002200000000000000000000000000000000000CE
:100230000000000000000000203084002030E000BA
:100240000830E2000008E100840A0008E400840AA3
:100250006408E11F0030E60000000000000000001C
:10026000000000000000000000000000000000008E
:1002700000000000EB20E7000830E800E71F4629F7
:10028000871700000000000087134829871787138D
:10029000E70DE80B3E290000000000000000000010
:1002A000000000000000000000000000000000004E
:1002B0000000000000006608F420E7000830E800B5
:1002C000E71F6829871700000000000087136A29CC
:1002D00087178713E70DE80B602900000000000076
:1002E000000000000000000000000000000000000E
:1002F00000000000000000006608FD20E700083054
:10030000E800E71F89298717000000000000871315
:100310008B2987178713E70DE80B8129E10DE20B85
:0A0320002829E00B202987170800A8
:06032A00831203179E017F
:100330009F018316031307138713F030860083167B
:1003400003138F01831603130F178F160F120F1D40
:10035000A729831203138717FC012030E1008313C0
:100360002030840000308000840A01308000840A3C
:10037000E10BB2290430FD00FC000030F600A001C2
:10038000A201A401A601071707130F30DE00D22037
:10039000DF0006210608FE008039F3007F0880395F
:1003A00073067E084039F3007F08403973067E08E3
:1003B0002039F3007F08203973067E081039F300D6
:1003C0007F08103973060319F60AA5207708E22082
:1003D000A0007808A2007908E220A4007A08A6000C
:0603E0007E08FF00C329A6
:02400E00D238A6
:00000001FF
