:020000040000FA
:040000008B011A2A2C
:040004000034003490
:0800080009000313831201300B
:10001000DE00E621DF0087175030E100E10B0E28FB
:1000200087135030E100E10B13282030840020308A
:10003000E0000830E2000008E100840A0008E40063
:10004000840A6408E11F0030E600000000000000A0
:1000500000000000000000000000000000000000A0
:100060000000000000000000000000000000000090
:100070000000000000000000000000000000000080
:10008000000000000000FF21E7000830E800E71F43
:100090004E28871700000000871350288717871302
:1000A000E70DE80B472800000000000000000000FA
:1000B0000000000000000000000000000000000040
:1000C0000000000000000000000000000000000030
:1000D0000000000000000000000000000000000020
:1000E000000066080822E7000830E800E71F7D28C6
:1000F00087170000000087137F2887178713E70DF5
:10010000E80B76280000000000000000000000005E
:1001100000000000000000000000000000000000DF
:1001200000000000000000000000000000000000CF
:1001300000000000000000000000000000000000BF
:1001400066081122E7000830E800E71FAC2887178F
:10015000000000008713AE2887178713E70DE80B10
:10016000A528E10DE20B2128E00B192887170800CC
:100170000034203410340834203410342034103447
:1001800000340034003400340034003408340834BF
:100190000034203410340834003400342034103457
:1001A000203410342034103400340034003400344F
:1001B0000034203410340834003400340034003467
:1001C00000340034203410342034203420341034EF
:1001D0000F3401340134013401340F34013401345B
:1001E000013401340334033403340334033403345B
:1001F0000334033404340734033402340234073440
:100200000134013401340334073404340334013439
:100210000134013407340234023403340234073425
:100220000234033402340734023401340334013419
:100230000334063402340334013403340634023404
:1002400003340134063403340134033402340634F5
:1002500003340134033402340134043401340434EB
:1002600002340234023402340234033402340334DC
:1002700002340334023403340234033402340334CA
:1002800002340334023403340234033402340334BA
:1002900000340134053406340A340C340E3410347E
:1002A00012341434173419341C341E3421342334DA
:1002B000263428342B342D3430343234353437342A
:1002C0003A343C343F34413400348034FF34803499
:1002D0000034FF34913491349134913400348034BB
:1002E000FF3480340034FF3490349034FF34E734EA
:1002F00000348134FF3481340034F134913491344A
:1003000091349F34E60001308A006608643E031889
:100310008A0A8200E60001308A0066082C3E031833
:100320008A0A8200E60001308A006608483E031807
:100330008A0A820000308A006508E83E03188A0AAB
:10034000820076081F39F6001B3C031CF601760874
:100350008A21FB00E40076089221E50077308400D2
:100360009A218000840AE50AE40BB02900347B0856
:10037000E4007630640784000008E3007C0864072A
:10038000E700670D203E840063088418F621721C84
:10039000800472188006E40BB9290800080076086A
:1003A0000339033A0319D729F60AA1210034760844
:1003B000FC39F600A1210034FD08031DFD030034C3
:1003C00000347D08073A031DFD0A003475087404E3
:1003D0000319F5098030751BF506751AF506F41931
:1003E000F506750DF40DF50D74080800E0000830F1
:1003F000E200E00CE10DE20BF92961080800E300DE
:1004000000308A0063080F39C83E03188A0A820048
:10041000E30000308A0063080F39B83E03188A0AE7
:100420008200E30000308A0063080F39D83E0318C9
:040430008A0A8200B2
:0C043400831203179E019F01831603131F
:1004400007138713F03086008312031307178316F0
:1004500003130F178F160F12831603130F108F1D20
:100460002F2A8312031387172030E10083132030D3
:10047000840000308000840A01308000840AE10B8F
:10048000392A0430FD001030FC00F030FF0000304D
:10049000F600031383121D30FE007E088221FF0048
:1004A0007E0D203E84007F088418F6218000840A97
:1004B000E6218000FE0B4D2A05200608F03A0319BC
:1004C000492A0717071305200608F03AFE0080396D
:1004D0000319702AF3007F0880397306031DCF21AA
:1004E0007E08403903197A2AF3007F0840397306E1
:1004F000031DE1217E0820390319842AF3007F08B7
:1005000020397306031DE0217E08103903198E2A55
:10051000F3007F0810397306031DDC2103138312D7
:080520007E08FF00612A492A50
:02400E00C238B6
:00000001FF
