:020000040000FA
:040000008B01892ABD
:040004000034003490
:080008000900E30000308A004A
:1000100063080F39E33E03188A0A8200E3000030C8
:100020008A0063080F39D33E03188A0A8200E3006E
:1000300000308A0063080F39F33E03188A0A8200F1
:10004000031383120130DE007022DF008717503067
:10005000E100E10B292887135030E100E10B2E2845
:10006000203084002030E0000830E2000008E10089
:10007000840A0008E400840A6408E11F0030E600F6
:100080000000000000000000000000000000000070
:100090000000000000000000000000000000000060
:1000A0000000000000000000000000000000000050
:1000B0000000000000000000000000000520E70034
:1000C0000830E800E71F6928871700000000871341
:1000D0006B2887178713E70DE80B622800000000E4
:1000E0000000000000000000000000000000000010
:1000F0000000000000000000000000000000000000
:1001000000000000000000000000000000000000EF
:10011000000000000000000066080E20E700083024
:10012000E800E71F982887170000000087139A2827
:1001300087178713E70DE80B9128000000000000E7
:1001400000000000000000000000000000000000AF
:10015000000000000000000000000000000000009F
:10016000000000000000000000000000000000008F
:1001700000000000000066081720E7000830E800D3
:10018000E71FC7288717000000008713C9288717B3
:100190008713E70DE80BC028E10DE20B3C28E00BCC
:1001A00034288717080000342034103408342034F1
:1001B000103420341034003400340034003400345F
:1001C0000034083408340034203410340834003447
:1001D00000342034103420341034203410340034EF
:1001E0000034003400340034203410340834003437
:1001F000003400340034003400342034103420340F
:100200002034203410340F340134013401340134EB
:100210000F34013401340134013403340334033422
:100220000334033403340334033404340734033411
:100230000234023407340134013401340334073406
:1002400004340334013401340134073402340234F9
:1002500003340234073402340334023407340234E2
:1002600001340334013403340634023403340134DA
:1002700003340634023403340134063403340134C5
:1002800003340234063403340134033402340134B9
:1002900004340134043402340234023402340234AB
:1002A000033402340334023403340234033402349A
:1002B000033402340334023403340234033402348A
:1002C000033402340334043401340434013402347A
:1002D000023402340234033402340334023403346B
:1002E000023403340234033402340334023403345A
:1002F000023403340234033402340334023400344D
:100300000134053406340A340C340E3410341234FB
:100310001434173419341C341E3421342334263455
:1003200028342B342D3430343234353437343A34A5
:100330003C343F34413400348034FF348034003462
:10034000FF34913491349134913400348034FF344B
:1003500080340034FF3490349034FF34E734003478
:100360008134FF3481340034F13491349134913448
:100370009F34E60001308A0066089B3E03188A0A13
:100380008200E60001308A006608473E03188A0AA8
:100390008200E60001308A006608633E03188A0A7C
:1003A0008200E60001308A0066087F3E03188A0A50
:1003B000820001308A006508033E03188A0A820021
:1003C00076081F39F6001B3C031CF6017608C9218C
:1003D000FE007608C121FB00E4007608D121E5008B
:1003E00077308400D9218000840AE50AE40BF229E1
:1003F00000347B08E4007630640784000008E300E2
:100400007C086407E700670D1E3E840063088418BB
:100410008022721C800472188006E40BFB290800FD
:100420007B08E4007630640784000008E3007C0861
:100430006407E700670D1E3E84006308841880226D
:10044000721C8005031DFF34E40B122A00340800DF
:1004500076080339033A03192F2AF60A322A760856
:10046000FC39F600E0217D0803190034E300FD01AA
:100470005322E30B382A0034FD0803190034FD0829
:100480000319FF34FD037B08E400F63064078400A1
:10049000800CE40B452A0034FC080319FF34FC03EC
:1004A0000034FC0A00340730E4007E087D07640253
:1004B000031CFF34FD0A7B08E400F6306407840067
:1004C000800DE40B5D2A0034E3006F086305031917
:1004D0000034F3007F0863057306031DFF34003406
:1004E000750874040319F5098030751BF506751A33
:1004F000F506F419F506750DF40DF50D74080800F0
:10050000E0000830E200E00CE10DE20B832A610814
:020510000800E1
:0E051200831203179E019F0183160313071324
:100520008713F03086008312031307178316031313
:100530000F178F160F12F701F801F901FA01831650
:1005400003130F108F1DA22A831203138717203065
:10055000E10083132030840000308000840A0130E1
:100560008000840AE10BAC2A031383162030840038
:100570002030E10000308000840AE10BBA2A031326
:1005800083120030FD001030FC00F030FF0001301D
:10059000F600031383121D30EF006F08B921FF002E
:1005A0006F0D203E84007F08841880228000840A1A
:1005B00070228000EF0BCD2A20200608F03A0319A4
:1005C000C92A2030E1008313203084008001840A8E
:1005D00001308000840AE10BE62AE0217210F92143
:1005E0000717071320200608F03AEF007214F921CC
:1005F0006F0803138316EF0080306422031D282246
:1006000040306422031D3F2220306422031D4C220F
:1006100010306422031D5322031383127210F92138
:100620006F08DC007F088022DA006F08FF00F02AE4
:02063000C92AD5
:02400E00C238B6
:00000001FF
