:020000040000FA
:040000008B01EF2958
:040004000034003490
:0800080009000034203410341B
:1000100008342034103420341034003400340034D8
:1000200000340034003408340834003420341034F0
:100030000834003400342034103420341034203498
:1000400010340034003400340034003420341034D0
:1000500008340034003400340034003400342034D8
:10006000103420342034203410340F34013401345F
:10007000013401340F3401340134013401340334C8
:1000800003340334033403340334033403340434B7
:1000900007340334023402340734013401340134A8
:1000A0000334073404340334013401340134073495
:1000B0000234023403340234073402340334023489
:1000C0000734023401340334013403340634023477
:1000D0000334013403340634023403340134063467
:1000E000033401340334023406340334013403345A
:1000F000023401340434013404340234023402344E
:10010000023402340334023403340234033402343C
:10011000033402340334023403340234033402342B
:10012000033402340334023403340034013405341C
:1001300006340A340C340E341034123415341734A7
:100140001A341C341F3421342434263428342B34FC
:100150002D3430343234353437343A343C343F344F
:100160004134E60000308A006608793E03188A0AA6
:100170008200E60000308A006608953E03188A0A6D
:10018000820000308A006508353E03188A0A820022
:1001900076081F39F6001B3C031CF6017608B120D7
:1001A000FB00E4007608B920E50077308400C12028
:1001B0008000840AE50AE40BD72800347B08E400B9
:1001C0007630640784000008E3007C086407E700D9
:1001D000670D203E8400630884181C21721C800473
:1001E00072188006E40BE028080076080339033A09
:1001F0000319FD28F60AC82000347608FC39F600F9
:10020000C8200034FD08031DFD03003400347D08C0
:10021000073A031DFD0A0034750874040319F50933
:100220008030751BF506751AF506F419F506750D7F
:10023000F40DF50D74080800E0000830E200E00C51
:10024000E10DE20B1F2961080800E30000308A007D
:1002500063080F39153E03188A0A8200E300003054
:100260008A0063080F39053E03188A0A8200E300FA
:1002700000308A0063080F39253E03188A0A82007D
:100280000313831287175030E100E10B45298713D0
:100290005030E100E10B4A29203084002030E0009A
:1002A0000830E2000008E100840A0008E400840A43
:1002B0006408E11F0030E6000000000000000000BC
:1002C000000000000000000000000000000000002E
:1002D000000000000000000000000000000000001E
:1002E000000000000000000000000000000000000E
:1002F000000000002521E7000830E800E71F8529FD
:100300008717000000008713872987178713E70DD9
:10031000E80B7E2900000000000000000000000043
:1003200000000000000000000000000000000000CD
:1003300000000000000000000000000000000000BD
:1003400000000000000000000000000000000000AD
:1003500066082E21E7000830E800E71FB429871758
:10036000000000008713B62987178713E70DE80BF5
:10037000AD290000000000000000000000000000A7
:10038000000000000000000000000000000000006D
:10039000000000000000000000000000000000005D
:1003A00000000000000000000000000000006608DF
:1003B0003721E7000830E800E71FE329871700002E
:1003C00000008713E52987178713E70DE80BDC2961
:0E03D000E10DE20B5829E00B502987170800B9
:0203DE00831288
:1003E00003179E019F018316031307138713F03031
:1003F0008600831203130717831603130F178F1634
:100400000F12831603130F108F1D042A8312031378
:1004100087172030E10083132030840000308000F3
:10042000840A01308000840AE10B0E2A0430FD00AA
:100430001030FC00F030FF000030F6000717071303
:10044000031383120F30DE000C21DF004021C8208F
:10045000DE200608F03AFE000313831680390319E4
:10046000372AF3007F0880397306031DF5207E08C4
:1004700040390319412AF3007F0840397306031DF0
:1004800007217E08203903194B2AF3007F08203901
:100490007306031D06217E0810390319552AF3003F
:1004A0007F0810397306031D022103138312760897
:1004B000DC007C081C3C03081C21DA007C081C3C86
:0C04C000031CF030D8007E08FF001E2A4C
:02400E00C238B6
:00000001FF
