:020000040000FA
:040000008B01FE2A48
:040004000034003490
:080008000900E30000308A004A
:1000100063080F39E33E03188A0A8200E3000030C8
:100020008A0063080F39D33E03188A0A8200E3006E
:1000300000308A0063080F39F33E03188A0A8200F1
:10004000031383120130DE00E522DF0087175030F2
:10005000E100E10B292887135030E100E10B2E2845
:10006000203084002030E0000830E2000008E10089
:10007000840A0008E400840A6408E11F0030E600F6
:100080000000000000000000000000000000000070
:100090000000000000000000000000000000000060
:1000A0000000000000000000000000000000000050
:1000B0000000000000000000000000000520E70034
:1000C0000830E800E71F6928871700000000871341
:1000D0006B2887178713E70DE80B622800000000E4
:1000E0000000000000000000000000000000000010
:1000F0000000000000000000000000000000000000
:1001000000000000000000000000000000000000EF
:10011000000000000000000066080E20E700083024
:10012000E800E71F982887170000000087139A2827
:1001300087178713E70DE80B9128000000000000E7
:1001400000000000000000000000000000000000AF
:10015000000000000000000000000000000000009F
:10016000000000000000000000000000000000008F
:1001700000000000000066081720E7000830E800D3
:10018000E71FC7288717000000008713C9288717B3
:100190008713E70DE80BC028E10DE20B3C28E00BCC
:1001A00034288717080000342034103408342034F1
:1001B000103420341034003400340034003400345F
:1001C0000034083408340034203410340834003447
:1001D00000342034103420341034203410340034EF
:1001E0000034003400340034203410340834003437
:1001F000003400340034003400342034103420340F
:100200002034203410340F340134013401340134EB
:100210000F34013401340134013403340334033422
:100220000334033403340334033404340734033411
:100230000234023407340134013401340334073406
:1002400004340334013401340134073402340234F9
:1002500003340234073402340334023407340234E2
:1002600001340334013403340634023403340134DA
:1002700003340634023403340134063403340134C5
:1002800003340234063403340134033402340134B9
:1002900004340134043402340234023402340234AB
:1002A000033402340334023403340234033402349A
:1002B000033402340334023403340234033402348A
:1002C000033402340334043401340434013402347A
:1002D000023402340234033402340334023403346B
:1002E000023403340234033402340334023403345A
:1002F000023403340234033402340334023400344D
:100300000134053406340A340C340E3410341234FB
:100310001434173419341C341E3421342334263455
:1003200028342B342D3430343234353437343A34A5
:100330003C343F34413400348034FF348034003462
:10034000FF34913491349134913400348034FF344B
:1003500080340034FF3490349034FF34E734003478
:100360008134FF3481340034F13491349134913448
:100370009F34E60001308A0066089B3E03188A0A13
:100380008200E60001308A006608473E03188A0AA8
:100390008200E60001308A006608633E03188A0A7C
:1003A0008200E60001308A0066087F3E03188A0A50
:1003B000820001308A006508033E03188A0A820021
:1003C00076081F39F6001B3C031CF6017608C9218C
:1003D000F4007608C121F500E4007608D121E5009B
:1003E00077308400D9218000840AE50AE40BF229E1
:1003F00000347508E4007630640784000008E300E8
:100400007C086407E700670D1E3E840063088418BB
:10041000F522721C800472188006E40BFB29080088
:100420007508E4007630640784000008E3007C0867
:1004300064079F3E840063087218202A8004232AE0
:100440000005031D0034E40B122AFF34760803393B
:1004500003192C2AF6033A2A7608033AF6003A2AB8
:1004600076080339033A0319372AF60A3A2A760836
:10047000FC39F600E0217D0803190034E300FD019A
:100480005822E30B402A0034FD080319FF34FD0312
:100490007508E400F63064078400800CE40B4A2AF7
:1004A0000034FC080319FF34FC030034FC0A003458
:1004B0000730E40074087D076402031CFF34FD0A62
:1004C0007508E400F63064078400800DE40B622AAE
:1004D0000034E3006F08630503190034E2007F086D
:1004E00063056206031DFF340034E201721010221E
:1004F00003138312F921031383168E2A1030FC0094
:100500000330FD00E522F6003A220313831672142D
:10051000E301E4011030E300CA2200341030EB00A4
:100520006B089F3E8400FF30000603199A2AEB0BEC
:10053000902A7E2AE20A6B08E9001030EA006B0874
:10054000EA026908A03E84000008E500840365080B
:100550008000E90AEA0BA12AAF3084008001B02AAA
:100560006B08E9001030EA006B08EA020310690D1D
:10057000203E84000008E500FE3084076508F5226F
:100580008000E90AEA0BB62A0310690D1E3E8400BA
:100590008001972A5A308400640880008403840311
:1005A0006308800084038403620880006208EC070B
:1005B0000318ED0A0318EE0A6308ED070318EE0AA4
:1005C0006408EE07E301E40100347B087E040319AC
:1005D000FB0980307B1BFB067B1AFB06FE19FB0622
:1005E0007B0DFE0DFB0D7E080800E0000830E200E8
:0C05F000E00CE10DE20BF82A61080800A5
:0405FC00831203174C
:100600009E019F018316031307138713F0308600A2
:10061000831203130717831603130F178F160F1276
:10062000F701F801F901FA01831603130F108F1D6A
:10063000172B8312031387172030E1008313203018
:10064000840000308000840A01308000840AE10BBD
:10065000212B03138316EC01ED01EE01E201E3010E
:10066000E401A03084004030E10000308000840AC2
:10067000E10B352B031383120330FD001030FC0017
:10068000F030FF00031383121D30EF006F08B92113
:10069000FF006F0D203E84007F088418F522800043
:1006A000840AE5228000EF0B462B20200608F03A52
:1006B0000319422B2030E1008313203084000030E6
:1006C0008000840A01308000840AE10B5F2B031351
:1006D0008312E522F6003A227210F9213C30F00034
:1006E000F100071707130313831220200608F03ABE
:1006F000EF007214F9216F0803138316EF007214D0
:1007000080306922FF3A031D8F2B7D08EB003022D9
:100710001022FF3A03198F2B6B08FD002622403070
:100720006922FF3A031D9A2B44221022FF3A031933
:100730009A2B582210306922FF3A031DA52B58220C
:100740001022FF3A0319A52B442220306922FF3AD8
:10075000031DBF2B3C30E2007008E202CA22700881
:10076000F1005122FF3A0319BA2B1022FF3A031964
:10077000BF2B562275221022FF3A031DCB2BF1030B
:100780000319AF2B031383127210F921031383167D
:080790006F08FF00712B002827
:02400E00C238B6
:00000001FF
