:020000040000FA
:040000008B01702AD6
:040004000034003490
:0800080009000313831201300B
:10001000DE003C22DF0087175030E100E10B0E28A4
:1000200087135030E100E10B13282030840020308A
:10003000E0000830E2000008E100840A0008E40063
:10004000840A6408E11F0030E600000000000000A0
:1000500000000000000000000000000000000000A0
:100060000000000000000000000000000000000090
:100070000000000000000000000000000000000080
:100080000000000000005522E7000830E800E71FEC
:100090004E28871700000000871350288717871302
:1000A000E70DE80B472800000000000000000000FA
:1000B0000000000000000000000000000000000040
:1000C0000000000000000000000000000000000030
:1000D0000000000000000000000000000000000020
:1000E000000066085E22E7000830E800E71F7D2870
:1000F00087170000000087137F2887178713E70DF5
:10010000E80B76280000000000000000000000005E
:1001100000000000000000000000000000000000DF
:1001200000000000000000000000000000000000CF
:1001300000000000000000000000000000000000BF
:1001400066086722E7000830E800E71FAC28871739
:10015000000000008713AE2887178713E70DE80B10
:10016000A528E10DE20B2128E00B192887170800CC
:100170000034203410340834203410342034103447
:1001800000340034003400340034003408340834BF
:100190000034203410340834003400342034103457
:1001A000203410342034103400340034003400344F
:1001B0000034203410340834003400340034003467
:1001C00000340034203410342034203420341034EF
:1001D0000F3401340134013401340F34013401345B
:1001E000013401340334033403340334033403345B
:1001F0000334033404340734033402340234073440
:100200000134013401340334073404340334013439
:100210000134013407340234023403340234073425
:100220000234033402340734023401340334013419
:100230000334063402340334013403340634023404
:1002400003340134063403340134033402340634F5
:1002500003340134033402340134043401340434EB
:1002600002340234023402340234033402340334DC
:1002700002340334023403340234033402340334CA
:1002800002340334023403340234033402340334BA
:1002900004340134043401340234023402340234AC
:1002A000033402340334023403340234033402349A
:1002B000033402340334023403340234033402348A
:1002C0000334023403340234003401340534063478
:1002D0000A340C340E3410341234143417341934F4
:1002E0001C341E3421342334263428342B342D344A
:1002F00030343234353437343A343C343F3441349A
:1003000000348034FF3480340034FF34913491342D
:100310009134913400348034FF3480340034FF341D
:1003200090349034FF34E73400348134FF34813426
:100330000034F1349134913491349F34E60001302B
:100340008A006608803E03188A0A8200E6000130AF
:100350008A0066082C3E03188A0A8200E6000130F3
:100360008A006608483E03188A0A8200E6000130C7
:100370008A006608643E03188A0A820000308A00F8
:100380006508E83E03188A0A820076081F39F600DD
:100390001B3C031CF6017608AE21FE007608A62160
:1003A000FB00E4007608B621E50077308400BE212A
:1003B0008000840AE50AE40BD72900347B08E400B6
:1003C0007630640784000008E3007C086407E700D7
:1003D000670D203E8400630884184C22721C800440
:1003E00072188006E40BE02908007B08E4007630F0
:1003F000640784000008E3007C086407E700670DD9
:10040000203E8400630884184C22721C8005031D62
:10041000FF34E40BF7290034080076080339033A67
:100420000319152AF60AC52100347608FC39F600AE
:10043000C5210034FD0803190034FD0803190034F8
:10044000FD037B08E400763064078400800CE40B35
:10045000232A00340034FC0A003406307E027D0278
:10046000031C0034FD0A7B08E40076306407840036
:10047000800DE40B352A0034750874040319F5095E
:100480008030751BF506751AF506F419F506750D1D
:10049000F40DF50D74080800E0000830E200E00CEF
:1004A000E10DE20B4F2A61080800E30000308A00EA
:1004B00063080F39C83E03188A0A8200E30000303F
:1004C0008A0063080F39B83E03188A0A8200E300E5
:1004D00000308A0063080F39D83E03188A0A820068
:1004E000831203179E019F018316031307138713BB
:1004F000F0308600831203130717831603130F17B8
:100500008F160F12F701F801F901FA018316031390
:100510000F108F1D892A8312031387172030E100E3
:1005200083132030840000308000840A0130800072
:10053000840AE10B932A03138316203084002030B1
:10054000E10000308000840AE10BA12A031383122A
:100550000030FD001030FC00F030FF000030F600ED
:10056000031383121D30EF006F089E21FF006F0DF3
:10057000203E84007F0884184C228000840A3C229C
:100580008000EF0BB42A05200608F03A0319B02AC0
:10059000C5212030E1008313203084008001840ACB
:1005A00001308000840AE10BCE2A071707130520CB
:1005B0000608F03AEF007214DE216F080313831669
:1005C000EF0080390319EA2AF3007F0880397306A7
:1005D000031D0D226F0840390319F42AF3007F0828
:1005E00040397306031D2D226F0820390319FE2A96
:1005F000F3007F0820397306031D2A226F08103983
:100600000319082BF3007F0810397306031D1D2200
:100610007210DE21031383126F08DC007F084C2266
:0A062000DA006F08FF00D52AB02AA7
:02400E00C238B6
:00000001FF
