:020000040000FA
:040000008B01EB295C
:040004000034003490
:0800080009000034203410341B
:1000100008342034103420341034003400340034D8
:1000200000340034003408340834003420341034F0
:100030000834003400342034103420341034203498
:1000400010340034003400340034003420341034D0
:1000500008340034003400340034003400342034D8
:10006000103420342034203410340F34013401345F
:10007000013401340F3401340134013401340334C8
:1000800003340334033403340334033403340134BA
:1000900001340334043407340334023402340734A3
:1000A0000134023402340334073404340334013499
:1000B0000134013407340234073402340334023487
:1000C0000734023401340334013403340634023477
:1000D0000334013403340634023403340134063467
:1000E000033401340334023406340334013403345A
:1000F000023401340434013404340234023402344E
:10010000023403340234033402340334023403343B
:10011000023402340334023403340234033402342C
:10012000033402340334023403340034013405341C
:1001300006340A340C340E341034123415341734A7
:100140001A341C341F3421342434263428342B34FC
:100150002D3430343234353437343A343C343F344F
:100160004134E30000308A006308793E03188A0AAC
:100170008200E30000308A006308953E03188A0A73
:10018000820000308A006208353E03188A0A820025
:1001900076081F39F6001B3C031CF6017608B120D7
:1001A000FB00E1007608B920E20077308400C1202E
:1001B0008000840AE20AE10BD7280034760803396C
:1001C000033A0319E528F60A00347608FC39F600EC
:1001D0000034FD08031DFD03FC0A0034F60A003458
:1001E0007D08073A031DFD0A003476087C087B0869
:1001F000E1007630610784000008E0007C086107B8
:1002000084006008041818218000E10BF928080018
:10021000750874040319F5098030751BF506751A05
:10022000F506F419F506750DF40DF50D74080800C2
:10023000E0000830E200E00CE10DE20B1B29610850
:100240000800E30000308A0063080F39153E0318E8
:100250008A0A8200E30000308A0063080F39053EF5
:1002600003188A0A8200E30000308A0063080F390D
:10027000253E03188A0A8200031383128717503021
:10028000E100E10B412987135030E100E10B4629E1
:10029000203084002030E0000830E2000008E10057
:1002A000840A0008E400840A6408E11F0030E600C4
:1002B000000000000000000000000000000000003E
:1002C000000000000000000000000000000000002E
:1002D000000000000000000000000000000000001E
:1002E0000000000000000000000000002121E700E5
:1002F0000830E800E71F81298717000000008713F6
:10030000832987178713E70DE80B7A29000000007F
:1003100000000000000000000000000000000000DD
:1003200000000000000000000000000000000000CD
:1003300000000000000000000000000000000000BD
:10034000000000000000000066082A21E7000830D5
:10035000E800E71FB0298717000000008713B229C3
:1003600087178713E70DE80BA9290000000000009C
:10037000000000000000000000000000000000007D
:10038000000000000000000000000000000000006D
:10039000000000000000000000000000000000005D
:1003A00000000000000066083321E7000830E80084
:1003B000E71FDF298717000000008713E12987174F
:1003C0008713E70DE80BD829E10DE20B5429E00B68
:0603D0004C29871708000C
:0A03D600831203179E019F01831696
:1003E000031307138713F0308600831203130717D4
:1003F000831603130F178F160F12831603130F1094
:100400008F1D002A8312031387172030E100831306
:100410002030840000308000840A01308000840A8B
:10042000E10B0A2A0430FD00FC000030F60007173B
:100430000713031383120F30DE000821DF003C2175
:100440000608F03AFE0003138316803903192E2A9A
:10045000F3007F0880397306031DDE207E084039D3
:100460000319382AF3007F0840397306031DF02072
:100470007E0820390319422AF3007F0820397306C9
:10048000031DEE207E08103903194C2AF3007F0863
:1004900010397306031DE92003138312F701F801D5
:1004A000F901FA01C8207708A00078081821A200F5
:1004B0007908A4007A081821A6007608DC007C08D8
:1004C0001C3C03081821DA007C081C3C031CF0309B
:0804D000D8007E08FF00172A86
:02400E00C238B6
:00000001FF
