:020000040000FA
:040000008B01D32875
:040004000034003490
:0800080009000034203400342B
:1000100000342034203400342034103400340034D0
:1000200010341034003420340034003400342034D0
:1000300000342034003420342034003410340034B0
:1000400010340034103410341034003400340034D0
:100050002034003420342034203400340034103470
:1000600000341034103400342034E0000830E10053
:10007000E00DE10CE10B382861080800E3000030D6
:100080008A0063080F39053E03188A0A8200E300DC
:1000900000308A0063080F39153E03188A0A82006F
:1000A000E30000308A0063080F39253E03188A0AEE
:1000B000820087175030E100E10B5C288713503035
:1000C000E100E10B612800000000000000000000DA
:1000D00000000000000000000000000000002030D0
:1000E00084004030E0000830E2000008E100840AAB
:1000F0000008E400840A6408E11F0030E600000004
:1001000000000000000000000000000000000000EF
:100110003E20E7000830E800E71F9428871700001A
:10012000000000008713962887178713E70DE80B58
:100130008C2800000000000000000000000000000B
:10014000000066084720E7000830E800E71FAE28F7
:1001500087170000000000008713B0288717871357
:10016000E70DE80BA62800000000000000000000DA
:100170000000000066085020E7000830E800E71F94
:10018000C72887170000000000008713C9288717B9
:100190008713E70DE80BBF28E10DE20B7B28E00B8E
:0601A00073288717080018
:0A01A6008316031307138713831653
:1001B00003138F01831603130F178F160F120F1DD2
:1001C000DF288312031387171030E1000030E800A6
:1001D00083132030840001308000840A6808800086
:1001E000840A01308000840A68088000840AE80AD2
:1001F000E10BEB280717071359202030840020302B
:0E020000E100800D840A840AE10B0129FA282E
:02400E00D238A6
:00000001FF
