:020000040000FA
:040000008B01C62981
:040004000034003490
:0800080009000034203410341B
:1000100008342034103420341034003400340034D8
:1000200000340034003408340834003420341034F0
:100030000834003400342034103420341034203498
:1000400010340034003400340034003420341034D0
:1000500008340034003400340034003400342034D8
:10006000103420342034203410340F34013401345F
:10007000013401340F3401340134013401340334C8
:1000800003340334033403340334033403340134BA
:1000900001340334043407340334023402340734A3
:1000A0000134023402340334073404340334013499
:1000B0000134013407340234073402340334023487
:1000C0000734023401340334013403340634023477
:1000D0000334013403340634023403340134063467
:1000E000033401340334023406340334013403345A
:1000F000023401340434013404340234023402344E
:10010000023403340234033402340334023403343B
:10011000023402340334023403340234033402342C
:10012000033402340334023403340034013405341C
:1001300006340A340C340E341034123415341734A7
:100140001A341C341F3421342434263428342B34FC
:100150002D3430343234353437343A343C343F344F
:100160004134E30000308A006308793E03188A0AAC
:100170008200E30000308A006308953E03188A0A73
:10018000820000308A006208353E03188A0A820025
:1001900076081F39E000B120FB00E1006008B920BB
:1001A000E20077308400C1208000840AE20AE10B7B
:1001B000D328003476080339033A0319E128F60AF4
:1001C00000347608FC39F6000034FD08031DFD03F9
:1001D0000034F60A00347D08073A031DFD0A003496
:1001E00076087C087B08E10076306107840000080F
:1001F000E0007C0861078400600804181321800077
:10020000E10BF4280800750874040319F50980301F
:10021000751BF506751AF506F419F506750DF40D3E
:10022000F50D74080800E0000830E200E00CE10D74
:10023000E20B162961080800E30000308A00630819
:100240000F39153E03188A0A8200E30000308A0045
:1002500063080F39053E03188A0A8200E300003064
:100260008A0063080F39253E03188A0A820087171F
:100270005030E100E10B3A2987135030E100E10BE7
:100280003F29000000000000000000000000000006
:10029000000000000000000000002030840020303A
:1002A000E0000830E2000008E100840A0008E400F1
:1002B000840A6408E11F0030E6000000000000002E
:1002C000000000000000000000000000000000002E
:1002D0000000000000001C21E7000830E800E71FD4
:1002E00077298717000000000000871379298717F6
:1002F0008713E70DE80B6F290000000000000000E5
:1003000000000000000000000000000000000000ED
:10031000000000000000000066082521E70008300A
:10032000E800E71F992987170000000000008713E5
:100330009B2987178713E70DE80B91290000000020
:1003400000000000000000000000000000000000AD
:100350000000000000000000000066082E21E700F9
:100360000830E800E71FBA298717000000000000E6
:100370008713BC2987178713E70DE80BB229E10D16
:0C038000E20B5929E00B512987170800F7
:04038C0083120317BE
:100390009E019F018316031307138713F030860015
:1003A000831603138F01831603130F178F160F1273
:1003B0000F1DD829831203138717FC012030E10099
:1003C00083132030840000308000840A01308000D4
:1003D000840AE10BE3290430FD00FC000030F60044
:1003E000071707130F30DE000321DF00372106084F
:1003F000FE008039F3007F0880397306031DDA2080
:100400007E084039F3007F0840397306031DEB2056
:100410007E082039F3007F0820397306031DE92088
:100420007E081039F3007F0810397306031DE5209C
:10043000F701F801F901FA01C82077081321A0009B
:100440007808A20079081321A4007A08A6007D0884
:08045000DC007E08FF00F0292A
:02400E00D238A6
:00000001FF
