:020000040000FA
:040000008B019A29AD
:040004000034003490
:0800080009000034203410341B
:1000100008342034103420341034003400340034D8
:1000200000340034003408340834003420341034F0
:100030000834003400342034103420341034203498
:1000400010340034003400340034003420341034D0
:1000500008340034003400340034003400342034D8
:10006000103420342034203410340134043401346A
:1000700004340234023402340234033402340334CC
:1000800002340334023403340234023403340234BD
:1000900003340234033402340334023403340234AC
:1000A000033400340134053406340A340C340E347D
:1000B00010341234153417341A341C341F342134DC
:1000C0002434263428342B342D343034323435342F
:1000D00037343A343C343F3441340F340134013442
:1000E000013401340F340134013401340134033458
:1000F000033403340334033403340334033401344A
:100100000134033404340734033402340234073432
:10011000013402340234033407340034E300003085
:100120008A006308353E03188A0A8200E300003023
:100130008A006308513E03188A0A820000308A0050
:1001400062086D3E03188A0A820076081F39E000B3
:100150001C3C031860088E20FB00E100600896201C
:10016000E200773084009E208000840AE20AE10BDE
:10017000B32800340800F60308000800F60AA10AB4
:10018000A30AA50AA70A080076087C087B08E100F4
:100190007630610784000008E0007C086107840075
:1001A00060080418E7208000E10BC82808007508E3
:1001B00074040319F5098030751BF506751AF506E8
:1001C000F419F506750DF40DF50D74080800E0003E
:1001D0000830E200E00CE10DE20BEA2861080800BB
:1001E000E30000308A0063080F39153E03188A0ABD
:1001F0008200E30000308A0063080F39053E0318CF
:100200008A0A8200E30000308A0063080F39253E25
:1002100003188A0A820087175030E100E10B0E298B
:1002200087135030E100E10B1329000000000000AB
:1002300000000000000000000000000000000000BE
:100240000000203084002030E0000830E200000888
:10025000E100840A0008E400840A6408E11F003019
:10026000E6000000000000000000000000000000A8
:100270000000000000000000000000000000F0206E
:10028000E7000830E800E71F4B298717000000004F
:10029000000087134D2987178713E70DE80B4329C3
:1002A000000000000000000000000000000000004E
:1002B000000000000000000000000000000000003E
:1002C0006608F920E7000830E800E71F6D29871766
:1002D00000000000000087136F2987178713E70DC0
:1002E000E80B65290000000000000000000000008D
:1002F00000000000000000000000000000000000FE
:10030000000066080221E7000830E800E71F8E2998
:1003100087170000000000008713902987178713B4
:10032000E70DE80B8629E10DE20B2D29E00B2529CD
:040330008717080023
:0C033400831203179E019F018316031320
:1003400007138713F0308600831603138F0183167B
:1003500003130F178F160F120F1DAC2983120313EF
:100360008717FC012030E100831320308400003027
:100370008000840A01308000840AE10BB729043030
:10038000FD00FC000030F600A001A201A401A601BE
:10039000071707130F30DE00D720DF000B210608F8
:1003A000FE008039F3007F08803973067E084039EB
:1003B000F3007F08403973067E082039F3007F0878
:1003C000203973067E081039F3007F081039730650
:1003D000031DBE20A520A001A201A401A60177084B
:1003E000E720A0007808A2007908E720A4007A0896
:0803F000A6007E08FF00C829E9
:02400E00D238A6
:00000001FF
