:020000040000FA
:040000008B01DD2A69
:040004000034003490
:080008000900E30000308A004A
:1000100063080F39E33E03188A0A8200E3000030C8
:100020008A0063080F39D33E03188A0A8200E3006E
:1000300000308A0063080F39F33E03188A0A8200F1
:10004000031383120130DE00C022DF008717503017
:10005000E100E10B292887135030E100E10B2E2845
:10006000203084002030E0000830E2000008E10089
:10007000840A0008E400840A6408E11F0030E600F6
:100080000000000000000000000000000000000070
:100090000000000000000000000000000000000060
:1000A0000000000000000000000000000000000050
:1000B0000000000000000000000000000520E70034
:1000C0000830E800E71F6928871700000000871341
:1000D0006B2887178713E70DE80B622800000000E4
:1000E0000000000000000000000000000000000010
:1000F0000000000000000000000000000000000000
:1001000000000000000000000000000000000000EF
:10011000000000000000000066080E20E700083024
:10012000E800E71F982887170000000087139A2827
:1001300087178713E70DE80B9128000000000000E7
:1001400000000000000000000000000000000000AF
:10015000000000000000000000000000000000009F
:10016000000000000000000000000000000000008F
:1001700000000000000066081720E7000830E800D3
:10018000E71FC7288717000000008713C9288717B3
:100190008713E70DE80BC028E10DE20B3C28E00BCC
:1001A00034288717080000342034103408342034F1
:1001B000103420341034003400340034003400345F
:1001C0000034083408340034203410340834003447
:1001D00000342034103420341034203410340034EF
:1001E0000034003400340034203410340834003437
:1001F000003400340034003400342034103420340F
:100200002034203410340F340134013401340134EB
:100210000F34013401340134013403340334033422
:100220000334033403340334033404340734033411
:100230000234023407340134013401340334073406
:1002400004340334013401340134073402340234F9
:1002500003340234073402340334023407340234E2
:1002600001340334013403340634023403340134DA
:1002700003340634023403340134063403340134C5
:1002800003340234063403340134033402340134B9
:1002900004340134043402340234023402340234AB
:1002A000033402340334023403340234033402349A
:1002B000033402340334023403340234033402348A
:1002C000033402340334043401340434013402347A
:1002D000023402340234033402340334023403346B
:1002E000023403340234033402340334023403345A
:1002F000023403340234033402340334023400344D
:100300000134053406340A340C340E3410341234FB
:100310001434173419341C341E3421342334263455
:1003200028342B342D3430343234353437343A34A5
:100330003C343F34413400348034FF348034003462
:10034000FF34913491349134913400348034FF344B
:1003500080340034FF3490349034FF34E734003478
:100360008134FF3481340034F13491349134913448
:100370009F34E60001308A0066089B3E03188A0A13
:100380008200E60001308A006608473E03188A0AA8
:100390008200E60001308A006608633E03188A0A7C
:1003A0008200E60001308A0066087F3E03188A0A50
:1003B000820001308A006508033E03188A0A820021
:1003C00076081F39F6001B3C031CF6017608C9218C
:1003D000F4007608C121F500E4007608D121E5009B
:1003E00077308400D9218000840AE50AE40BF229E1
:1003F00000347508E4007630640784000008E300E8
:100400007C086407E700670D1E3E840063088418BB
:10041000D422721C800472188006E40BFB290800A9
:100420007508E4007630640784000008E3007C0867
:1004300064079F3E840063087218202A8004232AE0
:100440000005031D0034E40B122AFF34080076086F
:10045000033903192D2AF6033B2A7608033AF600DE
:100460003B2A76080339033A0319382AF60A3B2A4D
:100470007608FC39F600E0217D0803190034E3001A
:10048000FD015922E30B412A0034FD080319FF3412
:10049000FD037508E400F63064078400800CE40B6B
:1004A0004B2A0034FC080319FF34FC030034FC0A17
:1004B00000340730E40074087D076402031CFF3435
:1004C000FD0A7508E400F63064078400800DE40B33
:1004D000632A0034E3006F08630503190034F30056
:1004E0007F0863057306031DFF3400347210102269
:1004F00003138312F92103138316892A1030FC0099
:100500000130FD00C022F6003B2203138316721453
:1005100000341030EB006B08A03E8400FF30000672
:100520000318962A840AEB0B8B2A7E2A6B08E900B3
:100530001030EA006B08EA026908A13E8400000856
:10054000E500FF3E65088000E90AEA0B9C2A80016D
:10055000A92A031383126B08E9001030EA006B0824
:10056000EA026908223E84000008E500FE3E6508B4
:100570008000E90AEA0BB12A800103138316922A4C
:100580007B087E040319FB0980307B1BFB067B1A6A
:10059000FB06FE19FB067B0DFE0DFB0D7E08080019
:1005A00070309402F1000034E0000830E200E00C0A
:0A05B000E10DE20BD72A61080800F4
:0605BA00831203179E01ED
:1005C0009F018316031307138713F03086008312ED
:1005D00003130717831603130F178F160F12F70154
:1005E000F801F901FA01831603130F108F1DF62A83
:1005F0008312031387172030E10083132030840017
:1006000000308000840A01308000840AE10B002B56
:1006100003138316A03084004030E1008130800055
:10062000840AE10B0E2BA0308400FF3080000313FE
:1006300083120130FD001030FC00F030FF0001306B
:10064000F600031383121D30EF006F08B921FF007D
:100650006F0D203E84007F088418D4228000840A15
:10066000C0228000EF0B252B20200608F03A03194A
:10067000212B2030E1008313203084008130800062
:10068000840A01308000840AE10B3E2B2030840074
:10069000FF308000031383123B227210F9210717E9
:1006A00007130313831220205C3084000030800085
:1006B0007C08DA000608F03AEF007214F9216F089E
:1006C00003138316EF00721480306A22FF3A031D71
:1006D000732B7D08EB0031221022FF3A0319732B94
:1006E0006B08FD00272240306A22FF3A031D7E2B53
:1006F00045221022FF3A03197E2B592210306A221C
:10070000FF3A031D892B59221022FF3A0319892B26
:10071000452220306A22FF3A031D9C2B5222FF3AC9
:100720000319972B1022FF3A03199C2B57225C3098
:100730008400FF3080007622031383127210F921A7
:10074000031383166F08DC007F08D422DA006F08D9
:06075000FF004F2B212BDE
:02400E00C238B6
:00000001FF
