:020000040000FA
:040000008B017C29CB
:040004000034003490
:0800080009000034203410341B
:1000100008342034103420341034003400340034D8
:1000200000340034003408340834003420341034F0
:100030000834003400342034103420341034203498
:1000400010340034003400340034003420341034D0
:1000500008340034003400340034003400342034D8
:10006000103420342034203410340134043401346A
:1000700004340234023402340234033402340334CC
:1000800002340334023403340234023403340234BD
:1000900003340234033402340334023403340234AC
:1000A000033400340134053406340A340C340E347D
:1000B00010341234153417341A341C341F342134DC
:1000C0002434263428342B342D343034323435342F
:1000D00037343A343C343F3441340F340134013442
:1000E000013401340F340134013401340134033458
:1000F000033403340334033403340334033401344A
:100100000134033404340734033402340234073432
:10011000013402340234033407340034E300003085
:100120008A006308353E03188A0A8200E300003023
:100130008A006308513E03188A0A820000308A0050
:1001400062086D3E03188A0A82001F39E0001C3CD9
:10015000031860088E20FB00E10060089620E20092
:10016000773084009E208000840AE20AE10BB228E6
:100170000034750874040319F5098030751BF50601
:10018000751AF506F419F506750DF40DF50D7408DC
:100190000800E0000830E200E00CE10DE20BCC28A2
:1001A00061080800E30000308A0063080F39153E3B
:1001B00003188A0A8200E30000308A0063080F39BE
:1001C000053E03188A0A8200E30000308A006308B3
:1001D0000F39253E03188A0A820087175030E10044
:1001E000E10BF02887135030E100E10BF528000007
:1001F00000000000000000000000000000000000FF
:10020000000000000000203084002030E0000830B2
:10021000E2000008E100840A0008E400840A64089F
:10022000E11F0030E60000000000000000000000B8
:1002300000000000000000000000000000000000BE
:100240000000D220E7000830E800E71F2D298717BB
:1002500000000000000087132F2987178713E70D80
:10026000E80B25290000000000000000000000004D
:10027000000000000000000000000000000000007E
:10028000000000006608DB20E7000830E800E71FF8
:100290004F29871700000000000087135129871796
:1002A0008713E70DE80B472900000000000000005D
:1002B000000000000000000000000000000000003E
:1002C0000000000000006608E420E7000830E800B5
:1002D000E71F7029871700000000000087137229AC
:1002E00087178713E70DE80B6829E10DE20B0F294B
:0802F000E00B07298717080045
:0802F800831203179E019F0110
:100300008316031307138713F03086008316031335
:100310008F01831603130F178F160F120F1D8E29CF
:10032000831203138717FC012030E1008313203070
:10033000840000308000840A01308000840AE10BD0
:10034000992907170713ED207C08203E8400060832
:10035000FE008039F3007F088039F3060319B029C5
:060360007E08FF00A12948
:02400E00D238A6
:00000001FF
