:020000040000FA
:040000008B01E82A5E
:040004000034003490
:080008000900E30000308A004A
:1000100063080F39E33E03188A0A8200E3000030C8
:100020008A0063080F39D33E03188A0A8200E3006E
:1000300000308A0063080F39F33E03188A0A8200F1
:10004000031383120130DE00CB22DF00871750300C
:10005000E100E10B292887135030E100E10B2E2845
:10006000203084002030E0000830E2000008E10089
:10007000840A0008E400840A6408E11F0030E600F6
:100080000000000000000000000000000000000070
:100090000000000000000000000000000000000060
:1000A0000000000000000000000000000000000050
:1000B0000000000000000000000000000520E70034
:1000C0000830E800E71F6928871700000000871341
:1000D0006B2887178713E70DE80B622800000000E4
:1000E0000000000000000000000000000000000010
:1000F0000000000000000000000000000000000000
:1001000000000000000000000000000000000000EF
:10011000000000000000000066080E20E700083024
:10012000E800E71F982887170000000087139A2827
:1001300087178713E70DE80B9128000000000000E7
:1001400000000000000000000000000000000000AF
:10015000000000000000000000000000000000009F
:10016000000000000000000000000000000000008F
:1001700000000000000066081720E7000830E800D3
:10018000E71FC7288717000000008713C9288717B3
:100190008713E70DE80BC028E10DE20B3C28E00BCC
:1001A00034288717080000342034103408342034F1
:1001B000103420341034003400340034003400345F
:1001C0000034083408340034203410340834003447
:1001D00000342034103420341034203410340034EF
:1001E0000034003400340034203410340834003437
:1001F000003400340034003400342034103420340F
:100200002034203410340F340134013401340134EB
:100210000F34013401340134013403340334033422
:100220000334033403340334033404340734033411
:100230000234023407340134013401340334073406
:1002400004340334013401340134073402340234F9
:1002500003340234073402340334023407340234E2
:1002600001340334013403340634023403340134DA
:1002700003340634023403340134063403340134C5
:1002800003340234063403340134033402340134B9
:1002900004340134043402340234023402340234AB
:1002A000033402340334023403340234033402349A
:1002B000033402340334023403340234033402348A
:1002C000033402340334043401340434013402347A
:1002D000023402340234033402340334023403346B
:1002E000023403340234033402340334023403345A
:1002F000023403340234033402340334023400344D
:100300000134053406340A340C340E3410341234FB
:100310001434173419341C341E3421342334263455
:1003200028342B342D3430343234353437343A34A5
:100330003C343F34413400348034FF348034003462
:10034000FF34913491349134913400348034FF344B
:1003500080340034FF3490349034FF34E734003478
:100360008134FF3481340034F13491349134913448
:100370009F34E60001308A0066089B3E03188A0A13
:100380008200E60001308A006608473E03188A0AA8
:100390008200E60001308A006608633E03188A0A7C
:1003A0008200E60001308A0066087F3E03188A0A50
:1003B000820001308A006508033E03188A0A820021
:1003C00076081F39F6001B3C031CF6015A308400E6
:1003D00076088000C921F4007608C121F500E40008
:1003E0007608D121E50077308400D9218000840A85
:1003F000E50AE40BF52900347508E400763064075B
:1004000084000008E3007C086407E700670D1E3ED7
:10041000840063088418DF22721C8004721880062E
:10042000E40BFE2908007508E400763064078400B8
:100430000008E3007C0864079F3E8400630872188C
:10044000232A8004262A0005031D0034E40B152A04
:10045000FF340800760803390319302AF6033E2AD0
:100460007608033AF6003E2A76080339033A031960
:100470003B2AF60A3E2A7608FC39F600E0217D0880
:1004800003190034E300FD015C22E30B442A00342D
:10049000FD080319FF34FD037508E400F630640716
:1004A0008400800CE40B4E2A0034FC080319FF344E
:1004B000FC030034FC0A00340730E40074087D07B4
:1004C0006402031CFF34FD0A7508E400F63064077B
:1004D0008400800DE40B662A0034E3006F08630596
:1004E00003190034F3007F0863057306031DFF340E
:1004F00000347210132203138312FC21031383169A
:100500008C2A1030FC000130FD00CB22F6003E2288
:1005100003138316721400341030EB006B089F3EF7
:100520008400FF3000060319982AEB0B8E2A812ADB
:100530005C308400FF3080006B08E9001030EA0076
:100540006B08EA026908A03E84000008E500840305
:1005500065088000E90AEA0BA22AAF308400800116
:10056000B12A6B08E9001030EA006B08EA020310B8
:10057000690D203E84000008E500FE308407650810
:10058000DF228000E90AEA0BB72A0310690D1E3E3C
:1005900084008001952A7B087E040319FB098030C2
:1005A0007B1BFB067B1AFB06FE19FB067B0DFE0D73
:1005B000FB0D7E08080070309402F1000034E0006A
:1005C0000830E200E00CE10DE20BE22A61080800CD
:1005D000831203179E019F018316031307138713CA
:1005E000F0308600831203130717831603130F17C7
:1005F0008F160F12F701F801F901FA0183160313A0
:100600000F108F1D012B8312031387172030E10079
:1006100083132030840000308000840A0130800081
:10062000840AE10B0B2B03138316A03084004030A7
:10063000E10081308000840AE10B192BA030840096
:10064000FF308000031383120130FD001030FC00E6
:10065000F030FF000130F600031383121D30EF006D
:100660006F08B921FF006F0D203E84007F088418B9
:10067000DF228000840ACB228000EF0B302B202069
:100680000608F03A03192C2B2030E10083132030A8
:10069000840081308000840A01308000840AE10BEC
:1006A000492B20308400FF308000031383123E2248
:1006B0007210FC21071707130313831220205C30EC
:1006C0008400003080000608F03AEF007214FC212C
:1006D0006F0803138316EF00721480306D22FF3A07
:1006E000031D7C2B7D08EB0034221322FF3A0319F3
:1006F0007C2B6B08FD002A2240306D22FF3A031D3F
:10070000872B48221322FF3A0319872B5C221030D3
:100710006D22FF3A031D922B5C221322FF3A03192C
:10072000922B482220306D22FF3A031DA12B552227
:10073000FF3A0319A02B1322FF3A0319A12B5A22C7
:100740007922031383127210FC21031383166F089E
:10075000DC007F08DF22DA006F08FF005A2B2C2B09
:02400E00C238B6
:00000001FF
