:020000040000FA
:040000008B016F29D8
:040004000034003490
:0800080009000034203400342B
:1000100000342034203400342034103400340034D0
:1000200010341034003420340034003400342034D0
:1000300000342034003420342034003410340034B0
:1000400010340034103410341034003400340034D0
:100050002034003420342034203400340034103470
:1000600000341034103400342034013404340134AA
:1000700004340234023402340234033402340334CC
:1000800002340334023403340234023403340234BD
:1000900003340234033402340334023403340234AC
:1000A000033400340134053406340A340C340E347D
:1000B00010341234153417341A341C341F342134DC
:1000C0002434263428342B342D343034323435342F
:1000D00037343A343C343F3441340F340134013442
:1000E000013401340F340134013401340134033458
:1000F000033403340334033403340334033401344A
:100100000134033404340734033402340234073432
:1001100001340234023403340734003400308A00DE
:100120006308353E03188A0A8200E30000308A0023
:100130006308353E03188A0A8200E000E300E30CFE
:10014000E30C8E20FD00E1007930840095208000D2
:10015000840AE10BA6280034770876040319F7090E
:100160008030771BF706771AF706F619F706770D32
:10017000F60DF70D76080800E0000830E200E00C0C
:10018000E10DE20BBF2861080800E30000308A009F
:1001900063080F39053E03188A0A8200E300003025
:1001A0008A0063080F39153E03188A0A8200E300AB
:1001B00000308A0063080F39253E03188A0A82003E
:1001C00087175030E100E10BE32887135030E1003E
:1001D000E10BE82800000000000000000000000023
:1001E000000000000000000000000000203084003B
:1001F0002030E0000830E2000008E100840A000836
:10020000E400840A6408E11F0030E60000000000FA
:1002100000000000000000000000000000000000DE
:100220000000000000000000C520E7000830E800E2
:10023000E71F2029871700000000000087132229EC
:1002400087178713E70DE80B18290000000000004E
:10025000000000000000000000000000000000009E
:10026000000000000000000000006608CE20E7004B
:100270000830E800E71F422987170000000000004F
:100280008713442987178713E70DE80B3A290000E5
:10029000000000000000000000000000000000005E
:1002A0000000000000000000000000006608D720E9
:1002B000E7000830E800E71F632987170000000007
:1002C00000008713652987178713E70DE80B5B2963
:0E02D000E10DE20B0229E00BFA288717080067
:0202DE00831289
:1002E00003179E019F018316031307138713F03032
:1002F0008600831603138F01831603130F178F16BF
:100300000F120F1D8129831203138717FE0120305E
:10031000E10083132030840000308000840A013023
:100320008000840AE10B8C2907170713E0207E0860
:10033000203E84000608FE1CBC208000FE0A7E0AC7
:060340003F39FE00942984
:02400E00D238A6
:00000001FF
